S00D00007765656B322E7372656339
S113000045C00000B3C00000DAC000005CC00000BE
S11300105AC0000058C0000056C0000054C0000080
S113002052C0000050C000004EC000004CC0000090
S11300304AC0000048C0000046C0000044C00000A0
S113004042C0000040C000003EC000003CC00000B0
S11300503AC0000038C0000036C0000034C00000C0
S113006032C0000030C000002EC000002CC00000D0
S11300702AC0000028C0000026C0000024C00000E0
S113008022C0000020C000001EC0000011241FBEBA
S1130090CFEFD0E1DEBFCDBF11E0A0E0B1E0E8EEEC
S11300A0F1E000E00BBF02C007900D92A430B1074D
S11300B0D9F721E0A4E0B1E001C01D92A630B20757
S11300C0E1F788D08FC09CCFAB9A89EF90E001977D
S11300D0F1F700C00000AB9889EF90E00197F1F7C9
S11300E000C000000895CF938FEF84BB15BAC0E21F
S11300F0C5BBEADFC5BBE8DF80E885BBE5DF15BA31
S1130100E3DF80EF85BBE0DF15BADEDF80E685BB89
S1130110DBDFCF910895CF93C82F85BBAA9AD4DF94
S1130120C295C07FC5BBAA9ACFDFCF910895CF9364
S1130130DF93EC018881882329F02196ECDF8991F3
S11301408111FCCFDF91CF910895CF93C82F85BB48
S1130150AA98BADFC295C07FC5BBAA98B5DFCF9174
S1130160089581E0F2DF82E0F0CF08951F920F92AC
S11301700FB60F9211248F939F9381E090E000902B
S1130180040102C0880F991F0A94E2F78BBB809187
S11301900401909105010196883091052CF4909307
S11301A005018093040104C010920501109204011A
S11301B09F918F910F900FBE0F901F9018951F92D3
S11301C00F920FB60F92112495980F900FBE0F90B7
S11301D01F9018958FEF81BB86DFC3DF80E091E02D
S10B01E0A6DFFFCFF894FFCF66
S10701E8616100004D
S9030000FC
