S00D00007765656B322E7372656339
S113000055C0000082C00000A9C000006CC0000000
S11300106AC0000068C0000066C0000064C0000040
S113002062C0000060C000005EC000005CC0000050
S11300305AC0000058C0000056C0000054C0000060
S113004052C0000050C000004EC000004CC0000070
S11300504AC0000048C0000046C0000044C0000080
S113006042C0000040C000003EC000003CC0000090
S11300703AC0000038C0000036C0000034C00000A0
S113008032C0000030C000002EC00000C000C30019
S1130090C600C900CC00CF00D200D500D800DB00D8
S11300A0DE00E100E400E700EA00ED0011241FBED9
S11300B0CFEFD0E1DEBFCDBF11E0A0E0B1E0E6E5D7
S11300C0F2E000E00BBF02C007900D92A030B10730
S11300D0D9F721E0A0E0B1E001C01D92A230B2073F
S11300E0E1F7A2D0B6C08CCF181619066CF420E044
S11300F030E0EFECF7E03197F1F700C000002F5F3C
S11301003F4F82179307A9F708951F920F920FB6D6
S11301100F9211248F939F9381E090E0009000014F
S113012002C0880F991F0A94E2F78BBB80910001EB
S1130130909101010196883091052CF4909301016E
S11301408093000104C010920101109200019F915C
S11301508F910F900FBE0F901F9018951F920F92C2
S11301600FB60F92112495980F900FBE0F901F9009
S1130170189580319105A0F5FC01EA5BFF4F60C042
S11301808FE385BB089586E085BB08958BE585BB29
S113019008958FE485BB089586E685BB08958DE6B2
S11301A085BB08958DE785BB089587E085BB0895D9
S11301B08FE785BB08958FE685BB089587E785BBE8
S11301C008958CE785BB089589E385BB08958EE582
S11301D085BB089589E785BB089581E785BB0895AC
S11301E089EF85BB08951ABA8FEF84BB80E090E055
S11301F0C0DFC0E0D0E0C89B08C0C99B06C080E057
S113020090E0B7DFC0E0D0E00BC0C89B04C02197EA
S1130210CE01AFDF05C0C99B03C02196CE01A9DF83
S11302208AEF90E061DFE7CF80EF81BBEAE6F0E0A0
S113023080818B60808389B7836089BF7894D3DFA2
S1130240EE0FFF1F0024001C0BBE0790F691E02D5B
S10902500994F894FFCFAD
S9030000FC
