S00D00007765656B352E7372656336
S113000045C000004BC0000049C0000047C00000CC
S113001045C0000043C0000041C000003FC00000D4
S11300203DC000003BC0000039C0000037C00000E4
S113003035C0000033C0000031C000002FC00000F4
S11300402DC000002BC0000029C0000027C0000004
S113005025C0000023C0000021C000001FC0000014
S11300601DC000001BC0000019C0000017C0000024
S113007015C0000013C0000011C000000FC0000034
S11300800DC000000BC0000009C0000011241FBEF9
S1130090CFEFD0E1DEBFCDBFDBD0E0C0B1CF1816CB
S11300A019066CF420E030E0EFECF7E03197F1F75B
S11300B000C000002F5F3F4F82179307A9F70895F0
S11300C08FEF87BBBB98C09A82E58DB908958FB92D
S11300D0779BFECF089598B321E030E002C0220F51
S11300E0331F8A95E2F72095292328BB089598B3F6
S11300F021E030E002C0220F331F8A95E2F7292B5A
S113010028BB089580E0E7DF89E0E1DF8FEFDFDFE0
S113011080E0EDCF089580E0DEDF89E0D8DF8FEF67
S1130120D6DF80E0E4DF80E0D6DF8AE0D0DF84E061
S1130130CEDF80E0DCDF80E0CEDF8BE0C8DF83E071
S1130140C6DF80E0D4DF80E0C6DF8CE0C0DF81E082
S1130150BEDF80E0CCCF0895CF93DF93D82FC62F96
S113016080E0B9DF8D2FB3DF8C2FB1DF80E0BFDFFC
S1130170DF91CF91089510E000E0D0E0C0E013C01B
S1130180DF5FD93041F40F5F093021F41F5F00E0D5
S1130190D0E001C0D0E0193029F410E000E0D0E054
S11301A0C0E001C0C0E0CF5F6C2F81E0D5DF6D2FD0
S11301B082E0D2DF602F83E0CFDF612F84E0CCDFE9
S11301C084E690E06CDFC93071F7DACFCF939ADF21
S11301D0C1E06FE08C2FC0DFCF5FC530D1F7CF9186
S11301E008956FE0B9CF0895C7EED3E00F2EF9E07C
S11301F0FF2EF02D09E019E0C436D1053CF484E06B
S1130200F0DF0F2EFAE0FF2EF02D06C0CA30D10524
S11302101CF483E0E6DF0AE0111107C0015021F469
S1130220FA9409E019E001C019E01150612F81E04E
S113023093DF602F82E090DF6F2D83E08DDF6AE033
S113024084E08ADF8AE090E02ADF2197A9F693DF31
S113025081E087BB35DF5FDFB9DFC6DFF894FFCF0E
S9030000FC
